{
  "contractName": "StringComparer",
  "abi": [
    {
      "inputs": [
        {
          "internalType": "string",
          "name": "str1",
          "type": "string"
        },
        {
          "internalType": "string",
          "name": "str2",
          "type": "string"
        }
      ],
      "name": "compare",
      "outputs": [
        {
          "internalType": "bool",
          "name": "",
          "type": "bool"
        }
      ],
      "stateMutability": "pure",
      "type": "function",
      "constant": true
    }
  ],
  "bytecode": "0x610389610053600b82828239805160001a607314610046577f4e487b7100000000000000000000000000000000000000000000000000000000600052600060045260246000fd5b30600052607381538281f3fe73000000000000000000000000000000000000000030146080604052600436106100355760003560e01c80633a96fdd71461003a575b600080fd5b610054600480360381019061004f919061021d565b61006a565b60405161006191906102b0565b60405180910390f35b60008160405160200161007d919061033c565b60405160208183030381529060405280519060200120836040516020016100a4919061033c565b6040516020818303038152906040528051906020012014905092915050565b6000604051905090565b600080fd5b600080fd5b600080fd5b600080fd5b6000601f19601f8301169050919050565b7f4e487b7100000000000000000000000000000000000000000000000000000000600052604160045260246000fd5b61012a826100e1565b810181811067ffffffffffffffff82111715610149576101486100f2565b5b80604052505050565b600061015c6100c3565b90506101688282610121565b919050565b600067ffffffffffffffff821115610188576101876100f2565b5b610191826100e1565b9050602081019050919050565b82818337600083830152505050565b60006101c06101bb8461016d565b610152565b9050828152602081018484840111156101dc576101db6100dc565b5b6101e784828561019e565b509392505050565b600082601f830112610204576102036100d7565b5b81356102148482602086016101ad565b91505092915050565b60008060408385031215610234576102336100cd565b5b600083013567ffffffffffffffff811115610252576102516100d2565b5b61025e858286016101ef565b925050602083013567ffffffffffffffff81111561027f5761027e6100d2565b5b61028b858286016101ef565b9150509250929050565b60008115159050919050565b6102aa81610295565b82525050565b60006020820190506102c560008301846102a1565b92915050565b600081519050919050565b600081905092915050565b60005b838110156102ff5780820151818401526020810190506102e4565b60008484015250505050565b6000610316826102cb565b61032081856102d6565b93506103308185602086016102e1565b80840191505092915050565b6000610348828461030b565b91508190509291505056fea26469706673582212203a0f3026c2773e1e32236c40e100e6373ee859717097ca9b3fa6e998d42e05be64736f6c63430008110033",
  "immutableReferences": {},
  "source": "//SPDX-License-Identifier:MIT\r\npragma solidity ^0.8.17;\r\n\r\ninterface ILiving {\r\n    function eat(string memory food) external view returns (string memory);\r\n\r\n    function speak() external view returns (string memory);\r\n\r\n    function sleep() external pure returns (string memory);\r\n}\r\n\r\nlibrary StringComparer {\r\n    function compare(\r\n        string memory str1,\r\n        string memory str2\r\n    ) public pure returns (bool) {\r\n        return\r\n            keccak256(abi.encodePacked(str1)) ==\r\n            keccak256(abi.encodePacked(str2));\r\n    }\r\n}\r\n\r\nabstract contract Animal is ILiving {\r\n    string constant MEAT = \"meat\";\r\n    string constant PLANT = \"plant\";\r\n\r\n    function eat(\r\n        string memory food\r\n    ) public view virtual returns (string memory) {\r\n        return string.concat(\"Animal eats \", food);\r\n    }\r\n\r\n    function sleep() public pure returns (string memory) {\r\n        return \"Z-z-z...\";\r\n    }\r\n}\r\n\r\nabstract contract HasName {\r\n    string internal _name;\r\n\r\n    constructor(string memory name) {\r\n        _name = name;\r\n    }\r\n\r\n    function getName() public view returns (string memory) {\r\n        return _name;\r\n    }\r\n}\r\n\r\nabstract contract PlantEater is Animal {\r\n    modifier eatOnlyPlant(string memory food) {\r\n        require(StringComparer.compare(food, PLANT), \"Can only eat plant food\");\r\n        _;\r\n    }\r\n\r\n    function eat(\r\n        string memory food\r\n    ) public view virtual override eatOnlyPlant(food) returns (string memory) {\r\n        return super.eat(food);\r\n    }\r\n}\r\n\r\nabstract contract MeatEater is Animal {\r\n    modifier eatOnlyMeat(string memory food) {\r\n        require(StringComparer.compare(food, MEAT), \"Can only eat meat\");\r\n        _;\r\n    }\r\n\r\n    function eat(\r\n        string memory food\r\n    ) public view virtual override eatOnlyMeat(food) returns (string memory) {\r\n        return super.eat(food);\r\n    }\r\n}\r\n\r\nabstract contract PlantMeatEater is Animal {\r\n    modifier eatOnlyPlantMeat(string memory food) {\r\n        require(\r\n            StringComparer.compare(food, MEAT) ||\r\n                StringComparer.compare(food, PLANT),\r\n            \"Can only eat meat or plant\"\r\n        );\r\n        _;\r\n    }\r\n\r\n    function eat(\r\n        string memory food\r\n    )\r\n        public\r\n        view\r\n        virtual\r\n        override\r\n        eatOnlyPlantMeat(food)\r\n        returns (string memory)\r\n    {\r\n        return super.eat(food);\r\n    }\r\n}\r\n\r\ncontract Cow is PlantEater, HasName {\r\n    constructor(string memory name) HasName(name) {}\r\n\r\n    function speak() public pure override returns (string memory) {\r\n        return \"Mooo\";\r\n    }\r\n}\r\n\r\ncontract Horse is PlantEater, HasName {\r\n    constructor(string memory name) HasName(name) {}\r\n\r\n    function speak() public pure override returns (string memory) {\r\n        return \"Igogo\";\r\n    }\r\n}\r\n\r\ncontract Wolf is MeatEater {\r\n    function speak() public pure override returns (string memory) {\r\n        return \"Awooo\";\r\n    }\r\n}\r\n\r\ncontract Dog is PlantMeatEater, HasName {\r\n    constructor(string memory name) HasName(name) {}\r\n\r\n    function eat(\r\n        string memory food\r\n    ) public view override returns (string memory) {\r\n        require(\r\n            !StringComparer.compare(food, \"chocolate\"),\r\n            \"chocolate is harmful for dog\"\r\n        );\r\n        return super.eat(food);\r\n    }\r\n\r\n    function speak() public pure override returns (string memory) {\r\n        return \"Woof\";\r\n    }\r\n}\r\n\r\ncontract Farmer {\r\n    function feed(\r\n        address animal,\r\n        string memory food\r\n    ) public view returns (string memory) {\r\n        return ILiving(animal).eat(food);\r\n    }\r\n\r\n    function call(address animal) public view returns (string memory) {\r\n        return ILiving(animal).speak();\r\n    }\r\n}\r\n",
  "sourcePath": "D:\\homework\\lesson_15_1\\contracts\\lesson_9.sol",
  "compiler": {
    "name": "solc",
    "version": "0.8.17+commit.8df45f5f.Emscripten.clang"
  },
  "schemaVersion": "3.4.11",
  "updatedAt": "2023-02-02T13:29:40.063Z",
  "networkType": "ethereum",
  "devdoc": {
    "kind": "dev",
    "methods": {},
    "version": 1
  },
  "userdoc": {
    "kind": "user",
    "methods": {},
    "version": 1
  }
}