{
  "contractName": "Wolf",
  "abi": [
    {
      "inputs": [
        {
          "internalType": "string",
          "name": "food",
          "type": "string"
        }
      ],
      "name": "eat",
      "outputs": [
        {
          "internalType": "string",
          "name": "",
          "type": "string"
        }
      ],
      "stateMutability": "view",
      "type": "function"
    },
    {
      "inputs": [],
      "name": "sleep",
      "outputs": [
        {
          "internalType": "string",
          "name": "",
          "type": "string"
        }
      ],
      "stateMutability": "pure",
      "type": "function"
    },
    {
      "inputs": [],
      "name": "speak",
      "outputs": [
        {
          "internalType": "string",
          "name": "",
          "type": "string"
        }
      ],
      "stateMutability": "pure",
      "type": "function"
    }
  ],
  "bytecode": "0x608060405234801561001057600080fd5b506106ab806100206000396000f3fe608060405234801561001057600080fd5b50600436106100415760003560e01c8063133a473e1461004657806350d8531514610064578063728d9b7414610082575b600080fd5b61004e6100b2565b60405161005b91906102e7565b60405180910390f35b61006c6100ef565b60405161007991906102e7565b60405180910390f35b61009c60048036038101906100979190610452565b61012c565b6040516100a991906102e7565b60405180910390f35b60606040518060400160405280600881526020017f5a2d7a2d7a2e2e2e000000000000000000000000000000000000000000000000815250905090565b60606040518060400160405280600581526020017f41776f6f6f000000000000000000000000000000000000000000000000000000815250905090565b60608173__StringComparer________________________633a96fdd7826040518060400160405280600481526020017f6d656174000000000000000000000000000000000000000000000000000000008152506040518363ffffffff1660e01b815260040161019d9291906104e5565b602060405180830381865af41580156101ba573d6000803e3d6000fd5b505050506040513d601f19601f820116820180604052508101906101de9190610554565b61021d576040517f08c379a0000000000000000000000000000000000000000000000000000000008152600401610214906105cd565b60405180910390fd5b6102268361022e565b915050919050565b606081604051602001610241919061064f565b6040516020818303038152906040529050919050565b600081519050919050565b600082825260208201905092915050565b60005b83811015610291578082015181840152602081019050610276565b60008484015250505050565b6000601f19601f8301169050919050565b60006102b982610257565b6102c38185610262565b93506102d3818560208601610273565b6102dc8161029d565b840191505092915050565b6000602082019050818103600083015261030181846102ae565b905092915050565b6000604051905090565b600080fd5b600080fd5b600080fd5b600080fd5b7f4e487b7100000000000000000000000000000000000000000000000000000000600052604160045260246000fd5b61035f8261029d565b810181811067ffffffffffffffff8211171561037e5761037d610327565b5b80604052505050565b6000610391610309565b905061039d8282610356565b919050565b600067ffffffffffffffff8211156103bd576103bc610327565b5b6103c68261029d565b9050602081019050919050565b82818337600083830152505050565b60006103f56103f0846103a2565b610387565b90508281526020810184848401111561041157610410610322565b5b61041c8482856103d3565b509392505050565b600082601f8301126104395761043861031d565b5b81356104498482602086016103e2565b91505092915050565b60006020828403121561046857610467610313565b5b600082013567ffffffffffffffff81111561048657610485610318565b5b61049284828501610424565b91505092915050565b600082825260208201905092915050565b60006104b782610257565b6104c1818561049b565b93506104d1818560208601610273565b6104da8161029d565b840191505092915050565b600060408201905081810360008301526104ff81856104ac565b9050818103602083015261051381846104ac565b90509392505050565b60008115159050919050565b6105318161051c565b811461053c57600080fd5b50565b60008151905061054e81610528565b92915050565b60006020828403121561056a57610569610313565b5b60006105788482850161053f565b91505092915050565b7f43616e206f6e6c7920656174206d656174000000000000000000000000000000600082015250565b60006105b7601183610262565b91506105c282610581565b602082019050919050565b600060208201905081810360008301526105e6816105aa565b9050919050565b7f416e696d616c2065617473200000000000000000000000000000000000000000815250565b600081905092915050565b600061062982610257565b6106338185610613565b9350610643818560208601610273565b80840191505092915050565b600061065a826105ed565b600c8201915061066a828461061e565b91508190509291505056fea2646970667358221220e87d06bdcbd1863987c6722ad2c4ee282c605d11e498cea0043e6ca5f291549a64736f6c63430008110033",
  "immutableReferences": {},
  "source": "//SPDX-License-Identifier:MIT\r\npragma solidity ^0.8.17;\r\n\r\ninterface ILiving {\r\n    function eat(string memory food) external view returns (string memory);\r\n\r\n    function speak() external view returns (string memory);\r\n\r\n    function sleep() external pure returns (string memory);\r\n}\r\n\r\nlibrary StringComparer {\r\n    function compare(\r\n        string memory str1,\r\n        string memory str2\r\n    ) public pure returns (bool) {\r\n        return\r\n            keccak256(abi.encodePacked(str1)) ==\r\n            keccak256(abi.encodePacked(str2));\r\n    }\r\n}\r\n\r\nabstract contract Animal is ILiving {\r\n    string constant MEAT = \"meat\";\r\n    string constant PLANT = \"plant\";\r\n\r\n    function eat(\r\n        string memory food\r\n    ) public view virtual returns (string memory) {\r\n        return string.concat(\"Animal eats \", food);\r\n    }\r\n\r\n    function sleep() public pure returns (string memory) {\r\n        return \"Z-z-z...\";\r\n    }\r\n}\r\n\r\nabstract contract HasName {\r\n    string internal _name;\r\n\r\n    constructor(string memory name) {\r\n        _name = name;\r\n    }\r\n\r\n    function getName() public view returns (string memory) {\r\n        return _name;\r\n    }\r\n}\r\n\r\nabstract contract PlantEater is Animal {\r\n    modifier eatOnlyPlant(string memory food) {\r\n        require(StringComparer.compare(food, PLANT), \"Can only eat plant food\");\r\n        _;\r\n    }\r\n\r\n    function eat(\r\n        string memory food\r\n    ) public view virtual override eatOnlyPlant(food) returns (string memory) {\r\n        return super.eat(food);\r\n    }\r\n}\r\n\r\nabstract contract MeatEater is Animal {\r\n    modifier eatOnlyMeat(string memory food) {\r\n        require(StringComparer.compare(food, MEAT), \"Can only eat meat\");\r\n        _;\r\n    }\r\n\r\n    function eat(\r\n        string memory food\r\n    ) public view virtual override eatOnlyMeat(food) returns (string memory) {\r\n        return super.eat(food);\r\n    }\r\n}\r\n\r\nabstract contract PlantMeatEater is Animal {\r\n    modifier eatOnlyPlantMeat(string memory food) {\r\n        require(\r\n            StringComparer.compare(food, MEAT) ||\r\n                StringComparer.compare(food, PLANT),\r\n            \"Can only eat meat or plant\"\r\n        );\r\n        _;\r\n    }\r\n\r\n    function eat(\r\n        string memory food\r\n    )\r\n        public\r\n        view\r\n        virtual\r\n        override\r\n        eatOnlyPlantMeat(food)\r\n        returns (string memory)\r\n    {\r\n        return super.eat(food);\r\n    }\r\n}\r\n\r\ncontract Cow is PlantEater, HasName {\r\n    constructor(string memory name) HasName(name) {}\r\n\r\n    function speak() public pure override returns (string memory) {\r\n        return \"Mooo\";\r\n    }\r\n}\r\n\r\ncontract Horse is PlantEater, HasName {\r\n    constructor(string memory name) HasName(name) {}\r\n\r\n    function speak() public pure override returns (string memory) {\r\n        return \"Igogo\";\r\n    }\r\n}\r\n\r\ncontract Wolf is MeatEater {\r\n    function speak() public pure override returns (string memory) {\r\n        return \"Awooo\";\r\n    }\r\n}\r\n\r\ncontract Dog is PlantMeatEater, HasName {\r\n    constructor(string memory name) HasName(name) {}\r\n\r\n    function eat(\r\n        string memory food\r\n    ) public view override returns (string memory) {\r\n        require(\r\n            !StringComparer.compare(food, \"chocolate\"),\r\n            \"chocolate is harmful for dog\"\r\n        );\r\n        return super.eat(food);\r\n    }\r\n\r\n    function speak() public pure override returns (string memory) {\r\n        return \"Woof\";\r\n    }\r\n}\r\n\r\ncontract Farmer {\r\n    function feed(\r\n        address animal,\r\n        string memory food\r\n    ) public view returns (string memory) {\r\n        return ILiving(animal).eat(food);\r\n    }\r\n\r\n    function call(address animal) public view returns (string memory) {\r\n        return ILiving(animal).speak();\r\n    }\r\n}\r\n",
  "sourcePath": "D:\\homework\\lesson_15_1\\contracts\\lesson_9.sol",
  "compiler": {
    "name": "solc",
    "version": "0.8.17+commit.8df45f5f.Emscripten.clang"
  },
  "schemaVersion": "3.4.11",
  "updatedAt": "2023-02-02T13:29:20.276Z",
  "devdoc": {
    "kind": "dev",
    "methods": {},
    "version": 1
  },
  "userdoc": {
    "kind": "user",
    "methods": {},
    "version": 1
  }
}